{
  "_format": "hh-sol-artifact-1",
  "contractName": "SwearJar",
  "sourceName": "contracts/SwearJar.sol",
  "abi": [
    {
      "inputs": [],
      "stateMutability": "nonpayable",
      "type": "constructor"
    },
    {
      "inputs": [],
      "name": "EnforcedPause",
      "type": "error"
    },
    {
      "inputs": [],
      "name": "ExpectedPause",
      "type": "error"
    },
    {
      "inputs": [
        {
          "internalType": "address",
          "name": "owner",
          "type": "address"
        }
      ],
      "name": "OwnableInvalidOwner",
      "type": "error"
    },
    {
      "inputs": [
        {
          "internalType": "address",
          "name": "account",
          "type": "address"
        }
      ],
      "name": "OwnableUnauthorizedAccount",
      "type": "error"
    },
    {
      "inputs": [],
      "name": "ReentrancyGuardReentrantCall",
      "type": "error"
    },
    {
      "anonymous": false,
      "inputs": [
        {
          "indexed": true,
          "internalType": "address",
          "name": "user",
          "type": "address"
        },
        {
          "indexed": false,
          "internalType": "uint256",
          "name": "amount",
          "type": "uint256"
        }
      ],
      "name": "BondDeposited",
      "type": "event"
    },
    {
      "anonymous": false,
      "inputs": [
        {
          "indexed": true,
          "internalType": "address",
          "name": "user",
          "type": "address"
        },
        {
          "indexed": false,
          "internalType": "uint256",
          "name": "amount",
          "type": "uint256"
        }
      ],
      "name": "BondWithdrawn",
      "type": "event"
    },
    {
      "anonymous": false,
      "inputs": [
        {
          "indexed": true,
          "internalType": "address",
          "name": "previousOwner",
          "type": "address"
        },
        {
          "indexed": true,
          "internalType": "address",
          "name": "newOwner",
          "type": "address"
        }
      ],
      "name": "OwnershipTransferred",
      "type": "event"
    },
    {
      "anonymous": false,
      "inputs": [
        {
          "indexed": false,
          "internalType": "address",
          "name": "account",
          "type": "address"
        }
      ],
      "name": "Paused",
      "type": "event"
    },
    {
      "anonymous": false,
      "inputs": [
        {
          "indexed": true,
          "internalType": "address",
          "name": "recipient",
          "type": "address"
        },
        {
          "indexed": false,
          "internalType": "uint256",
          "name": "amount",
          "type": "uint256"
        }
      ],
      "name": "PotWithdrawn",
      "type": "event"
    },
    {
      "anonymous": false,
      "inputs": [
        {
          "indexed": false,
          "internalType": "address",
          "name": "account",
          "type": "address"
        }
      ],
      "name": "Unpaused",
      "type": "event"
    },
    {
      "anonymous": false,
      "inputs": [
        {
          "indexed": true,
          "internalType": "address",
          "name": "user",
          "type": "address"
        },
        {
          "indexed": false,
          "internalType": "uint256",
          "name": "amount",
          "type": "uint256"
        }
      ],
      "name": "ViolationPenalty",
      "type": "event"
    },
    {
      "inputs": [
        {
          "internalType": "address",
          "name": "user",
          "type": "address"
        },
        {
          "internalType": "uint256",
          "name": "amount",
          "type": "uint256"
        }
      ],
      "name": "applyPenalty",
      "outputs": [],
      "stateMutability": "nonpayable",
      "type": "function"
    },
    {
      "inputs": [
        {
          "internalType": "address",
          "name": "",
          "type": "address"
        }
      ],
      "name": "bonds",
      "outputs": [
        {
          "internalType": "uint256",
          "name": "",
          "type": "uint256"
        }
      ],
      "stateMutability": "view",
      "type": "function"
    },
    {
      "inputs": [],
      "name": "depositBond",
      "outputs": [],
      "stateMutability": "payable",
      "type": "function"
    },
    {
      "inputs": [
        {
          "internalType": "address",
          "name": "user",
          "type": "address"
        }
      ],
      "name": "getBond",
      "outputs": [
        {
          "internalType": "uint256",
          "name": "",
          "type": "uint256"
        }
      ],
      "stateMutability": "view",
      "type": "function"
    },
    {
      "inputs": [
        {
          "internalType": "address",
          "name": "user",
          "type": "address"
        }
      ],
      "name": "getNonce",
      "outputs": [
        {
          "internalType": "uint256",
          "name": "",
          "type": "uint256"
        }
      ],
      "stateMutability": "view",
      "type": "function"
    },
    {
      "inputs": [],
      "name": "getPotBalance",
      "outputs": [
        {
          "internalType": "uint256",
          "name": "",
          "type": "uint256"
        }
      ],
      "stateMutability": "view",
      "type": "function"
    },
    {
      "inputs": [
        {
          "internalType": "address",
          "name": "",
          "type": "address"
        }
      ],
      "name": "nonces",
      "outputs": [
        {
          "internalType": "uint256",
          "name": "",
          "type": "uint256"
        }
      ],
      "stateMutability": "view",
      "type": "function"
    },
    {
      "inputs": [],
      "name": "owner",
      "outputs": [
        {
          "internalType": "address",
          "name": "",
          "type": "address"
        }
      ],
      "stateMutability": "view",
      "type": "function"
    },
    {
      "inputs": [],
      "name": "pause",
      "outputs": [],
      "stateMutability": "nonpayable",
      "type": "function"
    },
    {
      "inputs": [],
      "name": "paused",
      "outputs": [
        {
          "internalType": "bool",
          "name": "",
          "type": "bool"
        }
      ],
      "stateMutability": "view",
      "type": "function"
    },
    {
      "inputs": [],
      "name": "potBalance",
      "outputs": [
        {
          "internalType": "uint256",
          "name": "",
          "type": "uint256"
        }
      ],
      "stateMutability": "view",
      "type": "function"
    },
    {
      "inputs": [],
      "name": "renounceOwnership",
      "outputs": [],
      "stateMutability": "nonpayable",
      "type": "function"
    },
    {
      "inputs": [
        {
          "internalType": "address",
          "name": "newOwner",
          "type": "address"
        }
      ],
      "name": "transferOwnership",
      "outputs": [],
      "stateMutability": "nonpayable",
      "type": "function"
    },
    {
      "inputs": [],
      "name": "unpause",
      "outputs": [],
      "stateMutability": "nonpayable",
      "type": "function"
    },
    {
      "inputs": [
        {
          "internalType": "uint256",
          "name": "amount",
          "type": "uint256"
        }
      ],
      "name": "withdrawBond",
      "outputs": [],
      "stateMutability": "nonpayable",
      "type": "function"
    },
    {
      "inputs": [
        {
          "internalType": "address payable",
          "name": "to",
          "type": "address"
        },
        {
          "internalType": "uint256",
          "name": "amount",
          "type": "uint256"
        }
      ],
      "name": "withdrawPot",
      "outputs": [],
      "stateMutability": "nonpayable",
      "type": "function"
    },
    {
      "stateMutability": "payable",
      "type": "receive"
    }
  ],
  "bytecode": "0x608060405234801561001057600080fd5b506001600055338061003c57604051631e4fbdf760e01b81526000600482015260240160405180910390fd5b6100458161004b565b506100a5565b600180546001600160a01b03838116610100818102610100600160a81b031985161790945560405193909204169182907f8be0079c531659141344cd1fd0a4f28419497f9722a3daafe3b4186f6b6457e090600090a35050565b610b83806100b46000396000f3fe6080604052600436106100f75760003560e01c806371e8fb571161008a5780638da5cb5b116100595780638da5cb5b1461029e578063c3daab96146102d4578063f2fde38b146102f4578063fe10d7741461031457600080fd5b806371e8fb571461023f578063741b3c39146102545780637ecebe001461025c5780638456cb591461028957600080fd5b80633f4ba83a116100c65780633f4ba83a146101dc5780634111a197146101f15780635c975abb14610207578063715018a61461022a57600080fd5b80630557aeeb1461011b5780630d8912f31461013d5780632686d6a2146101865780632d0335ab146101a657600080fd5b3661011657346003600082825461010e9190610a53565b925050819055005b600080fd5b34801561012757600080fd5b5061013b610136366004610a81565b610341565b005b34801561014957600080fd5b50610173610158366004610aad565b6001600160a01b031660009081526002602052604090205490565b6040519081526020015b60405180910390f35b34801561019257600080fd5b5061013b6101a1366004610a81565b610488565b3480156101b257600080fd5b506101736101c1366004610aad565b6001600160a01b031660009081526004602052604090205490565b3480156101e857600080fd5b5061013b6105f4565b3480156101fd57600080fd5b5061017360035481565b34801561021357600080fd5b5060015460ff16604051901515815260200161017d565b34801561023657600080fd5b5061013b610606565b34801561024b57600080fd5b50600354610173565b61013b610618565b34801561026857600080fd5b50610173610277366004610aad565b60046020526000908152604090205481565b34801561029557600080fd5b5061013b6106cb565b3480156102aa57600080fd5b5060015461010090046001600160a01b03166040516001600160a01b03909116815260200161017d565b3480156102e057600080fd5b5061013b6102ef366004610ad1565b6106db565b34801561030057600080fd5b5061013b61030f366004610aad565b610877565b34801561032057600080fd5b5061017361032f366004610aad565b60026020526000908152604090205481565b6103496108b2565b6001600160a01b0382166000908152600260205260409020548111156103b25760405162461bcd60e51b8152602060048201526019602482015278496e73756666696369656e7420626f6e642062616c616e636560381b60448201526064015b60405180910390fd5b600081116103d25760405162461bcd60e51b81526004016103a990610aea565b6001600160a01b038216600090815260026020526040812080548392906103fa908490610b21565b9250508190555080600360008282546104139190610a53565b90915550506001600160a01b038216600090815260046020526040812080549161043c83610b34565b9190505550816001600160a01b03167f1c1a3b2d302c53208165e3a076749de733d6485dc8cfbcbe176ab201d34ffa838260405161047c91815260200190565b60405180910390a25050565b6104906108b2565b8060035410156104e25760405162461bcd60e51b815260206004820152601860248201527f496e73756666696369656e7420706f742062616c616e6365000000000000000060448201526064016103a9565b600081116105025760405162461bcd60e51b81526004016103a990610aea565b80600360008282546105149190610b21565b90915550506040516000906001600160a01b0384169083908381818185875af1925050503d8060008114610564576040519150601f19603f3d011682016040523d82523d6000602084013e610569565b606091505b50509050806105ac5760405162461bcd60e51b815260206004820152600f60248201526e151c985b9cd9995c8819985a5b1959608a1b60448201526064016103a9565b826001600160a01b03167ff5d8f9b1e7af440e1e7915f4693ccc004d1461a7dafd17ea7347d03decf298e1836040516105e791815260200190565b60405180910390a2505050565b6105fc6108b2565b6106046108e5565b565b61060e6108b2565b6106046000610937565b610620610991565b6106286109bb565b600034116106485760405162461bcd60e51b81526004016103a990610aea565b3360009081526002602052604081208054349290610667908490610a53565b909155505033600090815260046020526040812080549161068783610b34565b909155505060405134815233907f8ed8c6869618197b68315ade66e75ed3906c97b111fa3ab81e5760046825c7db9060200160405180910390a26106046001600055565b6106d36108b2565b6106046109df565b6106e3610991565b6106eb6109bb565b336000908152600260205260409020548111156107465760405162461bcd60e51b8152602060048201526019602482015278496e73756666696369656e7420626f6e642062616c616e636560381b60448201526064016103a9565b600081116107665760405162461bcd60e51b81526004016103a990610aea565b3360009081526002602052604081208054839290610785908490610b21565b90915550503360009081526004602052604081208054916107a583610b34565b9091555050604051600090339083908381818185875af1925050503d80600081146107ec576040519150601f19603f3d011682016040523d82523d6000602084013e6107f1565b606091505b50509050806108345760405162461bcd60e51b815260206004820152600f60248201526e151c985b9cd9995c8819985a5b1959608a1b60448201526064016103a9565b60405182815233907f0d41118e36df44efb77a471fc49fb9c0be0406d802ef95520e9fbf606e65b4559060200160405180910390a2506108746001600055565b50565b61087f6108b2565b6001600160a01b0381166108a957604051631e4fbdf760e01b8152600060048201526024016103a9565b61087481610937565b6001546001600160a01b036101009091041633146106045760405163118cdaa760e01b81523360048201526024016103a9565b6108ed610a1a565b6001805460ff191690557f5db9ee0a495bf2e6ff9c91a7834c1ba4fdd244a5e8aa4e537bd38aeae4b073aa335b6040516001600160a01b03909116815260200160405180910390a1565b600180546001600160a01b03838116610100818102610100600160a81b031985161790945560405193909204169182907f8be0079c531659141344cd1fd0a4f28419497f9722a3daafe3b4186f6b6457e090600090a35050565b6002600054036109b457604051633ee5aeb560e01b815260040160405180910390fd5b6002600055565b60015460ff16156106045760405163d93c066560e01b815260040160405180910390fd5b6109e76109bb565b6001805460ff1916811790557f62e78cea01bee320cd4e420270b5ea74000d11b0c9f74754ebdbfc544b05a2583361091a565b60015460ff1661060457604051638dfc202b60e01b815260040160405180910390fd5b634e487b7160e01b600052601160045260246000fd5b80820180821115610a6657610a66610a3d565b92915050565b6001600160a01b038116811461087457600080fd5b60008060408385031215610a9457600080fd5b8235610a9f81610a6c565b946020939093013593505050565b600060208284031215610abf57600080fd5b8135610aca81610a6c565b9392505050565b600060208284031215610ae357600080fd5b5035919050565b6020808252601d908201527f416d6f756e74206d7573742062652067726561746572207468616e2030000000604082015260600190565b81810381811115610a6657610a66610a3d565b600060018201610b4657610b46610a3d565b506001019056fea26469706673582212200393b74fe4b3b31bfe7c13e903449c695e0d71647c34563a9abdfa539db30bf464736f6c63430008140033",
  "linkReferences": {},
  "deployedLinkReferences": {}
}