{
  "_format": "hh-sol-artifact-1",
  "contractName": "SwearJar",
  "sourceName": "contracts/SwearJar.sol",
  "abi": [
    {
      "inputs": [],
      "stateMutability": "nonpayable",
      "type": "constructor"
    },
    {
      "inputs": [],
      "name": "EnforcedPause",
      "type": "error"
    },
    {
      "inputs": [],
      "name": "ExpectedPause",
      "type": "error"
    },
    {
      "inputs": [
        {
          "internalType": "address",
          "name": "owner",
          "type": "address"
        }
      ],
      "name": "OwnableInvalidOwner",
      "type": "error"
    },
    {
      "inputs": [
        {
          "internalType": "address",
          "name": "account",
          "type": "address"
        }
      ],
      "name": "OwnableUnauthorizedAccount",
      "type": "error"
    },
    {
      "inputs": [],
      "name": "ReentrancyGuardReentrantCall",
      "type": "error"
    },
    {
      "anonymous": false,
      "inputs": [
        {
          "indexed": true,
          "internalType": "address",
          "name": "user",
          "type": "address"
        },
        {
          "indexed": false,
          "internalType": "uint256",
          "name": "amount",
          "type": "uint256"
        }
      ],
      "name": "BondDeposited",
      "type": "event"
    },
    {
      "anonymous": false,
      "inputs": [
        {
          "indexed": true,
          "internalType": "address",
          "name": "user",
          "type": "address"
        },
        {
          "indexed": false,
          "internalType": "uint256",
          "name": "amount",
          "type": "uint256"
        }
      ],
      "name": "BondWithdrawn",
      "type": "event"
    },
    {
      "anonymous": false,
      "inputs": [
        {
          "indexed": true,
          "internalType": "bytes32",
          "name": "groupId",
          "type": "bytes32"
        },
        {
          "indexed": true,
          "internalType": "address",
          "name": "member",
          "type": "address"
        },
        {
          "indexed": false,
          "internalType": "uint256",
          "name": "amount",
          "type": "uint256"
        }
      ],
      "name": "GroupBondDeposited",
      "type": "event"
    },
    {
      "anonymous": false,
      "inputs": [
        {
          "indexed": true,
          "internalType": "bytes32",
          "name": "groupId",
          "type": "bytes32"
        },
        {
          "indexed": true,
          "internalType": "address",
          "name": "member",
          "type": "address"
        },
        {
          "indexed": false,
          "internalType": "uint256",
          "name": "amount",
          "type": "uint256"
        }
      ],
      "name": "GroupBondWithdrawn",
      "type": "event"
    },
    {
      "anonymous": false,
      "inputs": [
        {
          "indexed": true,
          "internalType": "bytes32",
          "name": "groupId",
          "type": "bytes32"
        },
        {
          "indexed": true,
          "internalType": "address",
          "name": "creator",
          "type": "address"
        },
        {
          "indexed": false,
          "internalType": "string",
          "name": "name",
          "type": "string"
        },
        {
          "indexed": false,
          "internalType": "uint256",
          "name": "targetAmount",
          "type": "uint256"
        }
      ],
      "name": "GroupCreated",
      "type": "event"
    },
    {
      "anonymous": false,
      "inputs": [
        {
          "indexed": true,
          "internalType": "bytes32",
          "name": "groupId",
          "type": "bytes32"
        }
      ],
      "name": "GroupDeactivated",
      "type": "event"
    },
    {
      "anonymous": false,
      "inputs": [
        {
          "indexed": true,
          "internalType": "bytes32",
          "name": "groupId",
          "type": "bytes32"
        },
        {
          "indexed": true,
          "internalType": "address",
          "name": "member",
          "type": "address"
        },
        {
          "indexed": false,
          "internalType": "uint256",
          "name": "amount",
          "type": "uint256"
        }
      ],
      "name": "GroupPenaltyApplied",
      "type": "event"
    },
    {
      "anonymous": false,
      "inputs": [
        {
          "indexed": true,
          "internalType": "bytes32",
          "name": "groupId",
          "type": "bytes32"
        },
        {
          "indexed": true,
          "internalType": "address",
          "name": "recipient",
          "type": "address"
        },
        {
          "indexed": false,
          "internalType": "uint256",
          "name": "amount",
          "type": "uint256"
        }
      ],
      "name": "GroupPotWithdrawn",
      "type": "event"
    },
    {
      "anonymous": false,
      "inputs": [
        {
          "indexed": true,
          "internalType": "bytes32",
          "name": "groupId",
          "type": "bytes32"
        },
        {
          "indexed": true,
          "internalType": "address",
          "name": "member",
          "type": "address"
        },
        {
          "indexed": false,
          "internalType": "uint256",
          "name": "bondAmount",
          "type": "uint256"
        }
      ],
      "name": "MemberJoined",
      "type": "event"
    },
    {
      "anonymous": false,
      "inputs": [
        {
          "indexed": true,
          "internalType": "bytes32",
          "name": "groupId",
          "type": "bytes32"
        },
        {
          "indexed": true,
          "internalType": "address",
          "name": "member",
          "type": "address"
        }
      ],
      "name": "MemberLeft",
      "type": "event"
    },
    {
      "anonymous": false,
      "inputs": [
        {
          "indexed": true,
          "internalType": "address",
          "name": "previousOwner",
          "type": "address"
        },
        {
          "indexed": true,
          "internalType": "address",
          "name": "newOwner",
          "type": "address"
        }
      ],
      "name": "OwnershipTransferred",
      "type": "event"
    },
    {
      "anonymous": false,
      "inputs": [
        {
          "indexed": false,
          "internalType": "address",
          "name": "account",
          "type": "address"
        }
      ],
      "name": "Paused",
      "type": "event"
    },
    {
      "anonymous": false,
      "inputs": [
        {
          "indexed": true,
          "internalType": "address",
          "name": "recipient",
          "type": "address"
        },
        {
          "indexed": false,
          "internalType": "uint256",
          "name": "amount",
          "type": "uint256"
        }
      ],
      "name": "PotWithdrawn",
      "type": "event"
    },
    {
      "anonymous": false,
      "inputs": [
        {
          "indexed": false,
          "internalType": "address",
          "name": "account",
          "type": "address"
        }
      ],
      "name": "Unpaused",
      "type": "event"
    },
    {
      "anonymous": false,
      "inputs": [
        {
          "indexed": true,
          "internalType": "address",
          "name": "user",
          "type": "address"
        },
        {
          "indexed": false,
          "internalType": "uint256",
          "name": "amount",
          "type": "uint256"
        }
      ],
      "name": "ViolationPenalty",
      "type": "event"
    },
    {
      "inputs": [
        {
          "internalType": "address",
          "name": "user",
          "type": "address"
        },
        {
          "internalType": "uint256",
          "name": "amount",
          "type": "uint256"
        }
      ],
      "name": "applyPenalty",
      "outputs": [],
      "stateMutability": "nonpayable",
      "type": "function"
    },
    {
      "inputs": [
        {
          "internalType": "bytes32",
          "name": "groupId",
          "type": "bytes32"
        },
        {
          "internalType": "address",
          "name": "user",
          "type": "address"
        },
        {
          "internalType": "uint256",
          "name": "amount",
          "type": "uint256"
        }
      ],
      "name": "applyPenaltyToGroup",
      "outputs": [],
      "stateMutability": "nonpayable",
      "type": "function"
    },
    {
      "inputs": [
        {
          "internalType": "address",
          "name": "",
          "type": "address"
        }
      ],
      "name": "bonds",
      "outputs": [
        {
          "internalType": "uint256",
          "name": "",
          "type": "uint256"
        }
      ],
      "stateMutability": "view",
      "type": "function"
    },
    {
      "inputs": [
        {
          "internalType": "string",
          "name": "name",
          "type": "string"
        },
        {
          "internalType": "uint256",
          "name": "targetAmount",
          "type": "uint256"
        },
        {
          "internalType": "uint256",
          "name": "durationDays",
          "type": "uint256"
        }
      ],
      "name": "createGroup",
      "outputs": [
        {
          "internalType": "bytes32",
          "name": "",
          "type": "bytes32"
        }
      ],
      "stateMutability": "nonpayable",
      "type": "function"
    },
    {
      "inputs": [
        {
          "internalType": "bytes32",
          "name": "groupId",
          "type": "bytes32"
        }
      ],
      "name": "deactivateGroup",
      "outputs": [],
      "stateMutability": "nonpayable",
      "type": "function"
    },
    {
      "inputs": [],
      "name": "depositBond",
      "outputs": [],
      "stateMutability": "payable",
      "type": "function"
    },
    {
      "inputs": [
        {
          "internalType": "bytes32",
          "name": "groupId",
          "type": "bytes32"
        }
      ],
      "name": "depositBondToGroup",
      "outputs": [],
      "stateMutability": "payable",
      "type": "function"
    },
    {
      "inputs": [
        {
          "internalType": "bytes32",
          "name": "groupId",
          "type": "bytes32"
        }
      ],
      "name": "distributeGroupPot",
      "outputs": [],
      "stateMutability": "nonpayable",
      "type": "function"
    },
    {
      "inputs": [],
      "name": "getAllGroupIds",
      "outputs": [
        {
          "internalType": "bytes32[]",
          "name": "",
          "type": "bytes32[]"
        }
      ],
      "stateMutability": "view",
      "type": "function"
    },
    {
      "inputs": [
        {
          "internalType": "address",
          "name": "user",
          "type": "address"
        }
      ],
      "name": "getBond",
      "outputs": [
        {
          "internalType": "uint256",
          "name": "",
          "type": "uint256"
        }
      ],
      "stateMutability": "view",
      "type": "function"
    },
    {
      "inputs": [
        {
          "internalType": "bytes32",
          "name": "groupId",
          "type": "bytes32"
        }
      ],
      "name": "getGroup",
      "outputs": [
        {
          "components": [
            {
              "internalType": "bytes32",
              "name": "id",
              "type": "bytes32"
            },
            {
              "internalType": "string",
              "name": "name",
              "type": "string"
            },
            {
              "internalType": "address",
              "name": "creator",
              "type": "address"
            },
            {
              "internalType": "uint256",
              "name": "targetAmount",
              "type": "uint256"
            },
            {
              "internalType": "uint256",
              "name": "potBalance",
              "type": "uint256"
            },
            {
              "internalType": "uint256",
              "name": "memberCount",
              "type": "uint256"
            },
            {
              "internalType": "bool",
              "name": "isActive",
              "type": "bool"
            },
            {
              "internalType": "uint256",
              "name": "createdAt",
              "type": "uint256"
            },
            {
              "internalType": "uint256",
              "name": "expiresAt",
              "type": "uint256"
            }
          ],
          "internalType": "struct SwearJar.Group",
          "name": "",
          "type": "tuple"
        }
      ],
      "stateMutability": "view",
      "type": "function"
    },
    {
      "inputs": [
        {
          "internalType": "bytes32",
          "name": "groupId",
          "type": "bytes32"
        },
        {
          "internalType": "address",
          "name": "member",
          "type": "address"
        }
      ],
      "name": "getGroupBond",
      "outputs": [
        {
          "internalType": "uint256",
          "name": "",
          "type": "uint256"
        }
      ],
      "stateMutability": "view",
      "type": "function"
    },
    {
      "inputs": [
        {
          "internalType": "bytes32",
          "name": "groupId",
          "type": "bytes32"
        },
        {
          "internalType": "address",
          "name": "member",
          "type": "address"
        }
      ],
      "name": "getGroupMember",
      "outputs": [
        {
          "components": [
            {
              "internalType": "address",
              "name": "wallet",
              "type": "address"
            },
            {
              "internalType": "uint256",
              "name": "bondAmount",
              "type": "uint256"
            },
            {
              "internalType": "bool",
              "name": "isActive",
              "type": "bool"
            },
            {
              "internalType": "uint256",
              "name": "joinedAt",
              "type": "uint256"
            }
          ],
          "internalType": "struct SwearJar.Member",
          "name": "",
          "type": "tuple"
        }
      ],
      "stateMutability": "view",
      "type": "function"
    },
    {
      "inputs": [
        {
          "internalType": "bytes32",
          "name": "groupId",
          "type": "bytes32"
        }
      ],
      "name": "getGroupMemberCount",
      "outputs": [
        {
          "internalType": "uint256",
          "name": "",
          "type": "uint256"
        }
      ],
      "stateMutability": "view",
      "type": "function"
    },
    {
      "inputs": [
        {
          "internalType": "bytes32",
          "name": "groupId",
          "type": "bytes32"
        }
      ],
      "name": "getGroupMembers",
      "outputs": [
        {
          "internalType": "address[]",
          "name": "",
          "type": "address[]"
        }
      ],
      "stateMutability": "view",
      "type": "function"
    },
    {
      "inputs": [
        {
          "internalType": "bytes32",
          "name": "groupId",
          "type": "bytes32"
        }
      ],
      "name": "getGroupPotBalance",
      "outputs": [
        {
          "internalType": "uint256",
          "name": "",
          "type": "uint256"
        }
      ],
      "stateMutability": "view",
      "type": "function"
    },
    {
      "inputs": [
        {
          "internalType": "bytes32",
          "name": "groupId",
          "type": "bytes32"
        }
      ],
      "name": "getGroupProgress",
      "outputs": [
        {
          "internalType": "uint256",
          "name": "",
          "type": "uint256"
        }
      ],
      "stateMutability": "view",
      "type": "function"
    },
    {
      "inputs": [
        {
          "internalType": "address",
          "name": "user",
          "type": "address"
        }
      ],
      "name": "getNonce",
      "outputs": [
        {
          "internalType": "uint256",
          "name": "",
          "type": "uint256"
        }
      ],
      "stateMutability": "view",
      "type": "function"
    },
    {
      "inputs": [],
      "name": "getPotBalance",
      "outputs": [
        {
          "internalType": "uint256",
          "name": "",
          "type": "uint256"
        }
      ],
      "stateMutability": "view",
      "type": "function"
    },
    {
      "inputs": [
        {
          "internalType": "address",
          "name": "user",
          "type": "address"
        }
      ],
      "name": "getUserGroups",
      "outputs": [
        {
          "internalType": "bytes32[]",
          "name": "",
          "type": "bytes32[]"
        }
      ],
      "stateMutability": "view",
      "type": "function"
    },
    {
      "inputs": [
        {
          "internalType": "bytes32",
          "name": "",
          "type": "bytes32"
        },
        {
          "internalType": "address",
          "name": "",
          "type": "address"
        }
      ],
      "name": "groupBonds",
      "outputs": [
        {
          "internalType": "uint256",
          "name": "",
          "type": "uint256"
        }
      ],
      "stateMutability": "view",
      "type": "function"
    },
    {
      "inputs": [
        {
          "internalType": "uint256",
          "name": "",
          "type": "uint256"
        }
      ],
      "name": "groupIds",
      "outputs": [
        {
          "internalType": "bytes32",
          "name": "",
          "type": "bytes32"
        }
      ],
      "stateMutability": "view",
      "type": "function"
    },
    {
      "inputs": [
        {
          "internalType": "bytes32",
          "name": "",
          "type": "bytes32"
        },
        {
          "internalType": "uint256",
          "name": "",
          "type": "uint256"
        }
      ],
      "name": "groupMemberList",
      "outputs": [
        {
          "internalType": "address",
          "name": "",
          "type": "address"
        }
      ],
      "stateMutability": "view",
      "type": "function"
    },
    {
      "inputs": [
        {
          "internalType": "bytes32",
          "name": "",
          "type": "bytes32"
        },
        {
          "internalType": "address",
          "name": "",
          "type": "address"
        }
      ],
      "name": "groupMembers",
      "outputs": [
        {
          "internalType": "address",
          "name": "wallet",
          "type": "address"
        },
        {
          "internalType": "uint256",
          "name": "bondAmount",
          "type": "uint256"
        },
        {
          "internalType": "bool",
          "name": "isActive",
          "type": "bool"
        },
        {
          "internalType": "uint256",
          "name": "joinedAt",
          "type": "uint256"
        }
      ],
      "stateMutability": "view",
      "type": "function"
    },
    {
      "inputs": [
        {
          "internalType": "bytes32",
          "name": "",
          "type": "bytes32"
        },
        {
          "internalType": "address",
          "name": "",
          "type": "address"
        }
      ],
      "name": "groupNonces",
      "outputs": [
        {
          "internalType": "uint256",
          "name": "",
          "type": "uint256"
        }
      ],
      "stateMutability": "view",
      "type": "function"
    },
    {
      "inputs": [
        {
          "internalType": "bytes32",
          "name": "",
          "type": "bytes32"
        }
      ],
      "name": "groupPots",
      "outputs": [
        {
          "internalType": "uint256",
          "name": "",
          "type": "uint256"
        }
      ],
      "stateMutability": "view",
      "type": "function"
    },
    {
      "inputs": [
        {
          "internalType": "bytes32",
          "name": "",
          "type": "bytes32"
        }
      ],
      "name": "groups",
      "outputs": [
        {
          "internalType": "bytes32",
          "name": "id",
          "type": "bytes32"
        },
        {
          "internalType": "string",
          "name": "name",
          "type": "string"
        },
        {
          "internalType": "address",
          "name": "creator",
          "type": "address"
        },
        {
          "internalType": "uint256",
          "name": "targetAmount",
          "type": "uint256"
        },
        {
          "internalType": "uint256",
          "name": "potBalance",
          "type": "uint256"
        },
        {
          "internalType": "uint256",
          "name": "memberCount",
          "type": "uint256"
        },
        {
          "internalType": "bool",
          "name": "isActive",
          "type": "bool"
        },
        {
          "internalType": "uint256",
          "name": "createdAt",
          "type": "uint256"
        },
        {
          "internalType": "uint256",
          "name": "expiresAt",
          "type": "uint256"
        }
      ],
      "stateMutability": "view",
      "type": "function"
    },
    {
      "inputs": [
        {
          "internalType": "bytes32",
          "name": "groupId",
          "type": "bytes32"
        }
      ],
      "name": "hasGroupReachedTarget",
      "outputs": [
        {
          "internalType": "bool",
          "name": "",
          "type": "bool"
        }
      ],
      "stateMutability": "view",
      "type": "function"
    },
    {
      "inputs": [
        {
          "internalType": "bytes32",
          "name": "groupId",
          "type": "bytes32"
        },
        {
          "internalType": "address",
          "name": "user",
          "type": "address"
        }
      ],
      "name": "isGroupMember",
      "outputs": [
        {
          "internalType": "bool",
          "name": "",
          "type": "bool"
        }
      ],
      "stateMutability": "view",
      "type": "function"
    },
    {
      "inputs": [
        {
          "internalType": "bytes32",
          "name": "groupId",
          "type": "bytes32"
        }
      ],
      "name": "joinGroup",
      "outputs": [],
      "stateMutability": "payable",
      "type": "function"
    },
    {
      "inputs": [
        {
          "internalType": "bytes32",
          "name": "groupId",
          "type": "bytes32"
        }
      ],
      "name": "leaveGroup",
      "outputs": [],
      "stateMutability": "nonpayable",
      "type": "function"
    },
    {
      "inputs": [
        {
          "internalType": "address",
          "name": "",
          "type": "address"
        }
      ],
      "name": "nonces",
      "outputs": [
        {
          "internalType": "uint256",
          "name": "",
          "type": "uint256"
        }
      ],
      "stateMutability": "view",
      "type": "function"
    },
    {
      "inputs": [],
      "name": "owner",
      "outputs": [
        {
          "internalType": "address",
          "name": "",
          "type": "address"
        }
      ],
      "stateMutability": "view",
      "type": "function"
    },
    {
      "inputs": [],
      "name": "pause",
      "outputs": [],
      "stateMutability": "nonpayable",
      "type": "function"
    },
    {
      "inputs": [],
      "name": "paused",
      "outputs": [
        {
          "internalType": "bool",
          "name": "",
          "type": "bool"
        }
      ],
      "stateMutability": "view",
      "type": "function"
    },
    {
      "inputs": [],
      "name": "potBalance",
      "outputs": [
        {
          "internalType": "uint256",
          "name": "",
          "type": "uint256"
        }
      ],
      "stateMutability": "view",
      "type": "function"
    },
    {
      "inputs": [],
      "name": "renounceOwnership",
      "outputs": [],
      "stateMutability": "nonpayable",
      "type": "function"
    },
    {
      "inputs": [
        {
          "internalType": "address",
          "name": "newOwner",
          "type": "address"
        }
      ],
      "name": "transferOwnership",
      "outputs": [],
      "stateMutability": "nonpayable",
      "type": "function"
    },
    {
      "inputs": [],
      "name": "unpause",
      "outputs": [],
      "stateMutability": "nonpayable",
      "type": "function"
    },
    {
      "inputs": [
        {
          "internalType": "address",
          "name": "",
          "type": "address"
        },
        {
          "internalType": "uint256",
          "name": "",
          "type": "uint256"
        }
      ],
      "name": "userGroups",
      "outputs": [
        {
          "internalType": "bytes32",
          "name": "",
          "type": "bytes32"
        }
      ],
      "stateMutability": "view",
      "type": "function"
    },
    {
      "inputs": [
        {
          "internalType": "uint256",
          "name": "amount",
          "type": "uint256"
        }
      ],
      "name": "withdrawBond",
      "outputs": [],
      "stateMutability": "nonpayable",
      "type": "function"
    },
    {
      "inputs": [
        {
          "internalType": "bytes32",
          "name": "groupId",
          "type": "bytes32"
        },
        {
          "internalType": "uint256",
          "name": "amount",
          "type": "uint256"
        }
      ],
      "name": "withdrawBondFromGroup",
      "outputs": [],
      "stateMutability": "nonpayable",
      "type": "function"
    },
    {
      "inputs": [
        {
          "internalType": "bytes32",
          "name": "groupId",
          "type": "bytes32"
        },
        {
          "internalType": "address payable",
          "name": "to",
          "type": "address"
        },
        {
          "internalType": "uint256",
          "name": "amount",
          "type": "uint256"
        }
      ],
      "name": "withdrawGroupPot",
      "outputs": [],
      "stateMutability": "nonpayable",
      "type": "function"
    },
    {
      "inputs": [
        {
          "internalType": "address payable",
          "name": "to",
          "type": "address"
        },
        {
          "internalType": "uint256",
          "name": "amount",
          "type": "uint256"
        }
      ],
      "name": "withdrawPot",
      "outputs": [],
      "stateMutability": "nonpayable",
      "type": "function"
    },
    {
      "stateMutability": "payable",
      "type": "receive"
    }
  ],
  "bytecode": "0x60806040523480156200001157600080fd5b50600160005533806200003e57604051631e4fbdf760e01b81526000600482015260240160405180910390fd5b620000498162000050565b50620000aa565b600180546001600160a01b03838116610100818102610100600160a81b031985161790945560405193909204169182907f8be0079c531659141344cd1fd0a4f28419497f9722a3daafe3b4186f6b6457e090600090a35050565b6131d880620000ba6000396000f3fe60806040526004361061026a5760003560e01c8063715018a611610144578063c3daab96116100b6578063f04591d21161007a578063f04591d2146108fd578063f2fde38b1461091d578063f6bf38911461093d578063f931544b1461095d578063fb0135d11461097d578063fe10d7741461099057600080fd5b8063c3daab961461082c578063cb3022ff1461084c578063d5196d0c14610895578063ea1de0eb146108b5578063ef161bcb146108c857600080fd5b80638456cb59116101085780638456cb59146107235780638b2cd893146107385780638da5cb5b14610758578063941f450b1461078f5780639bdb39e7146107bc578063b567d4ba146107ff57600080fd5b8063715018a61461069757806371e8fb57146106ac578063741b3c39146106c15780637ecebe00146106c957806382744f93146106f657600080fd5b80633f4ba83a116101dd5780635c975abb116101a15780635c975abb1461059057806360a9e097146105b45780636317f8ec146105d4578063660f3b881461060c5780636c052cd81461064a5780636e01de301461067757600080fd5b80633f4ba83a146105055780634093d7a11461051a5780634111a1971461053a57806350b0bcef1461055057806352890d5d1461057057600080fd5b80631ac3b2361161022f5780631ac3b236146103de5780632686d6a21461043c578063277c5f421461045c5780632d0335ab1461048d5780632e3dcc06146104c35780633da04e4a146104e557600080fd5b80624e1be91461028e57806302737fa3146102d95780630557aeeb146102fb5780630ba7d5e11461031b5780630d8912f3146103a857600080fd5b366102895734600360008282546102819190612abf565b925050819055005b600080fd5b34801561029a57600080fd5b506102c66102a9366004612ae7565b600960209081526000928352604080842090915290825290205481565b6040519081526020015b60405180910390f35b3480156102e557600080fd5b506102f96102f4366004612b17565b6109bd565b005b34801561030757600080fd5b506102f9610316366004612b30565b610d1e565b34801561032757600080fd5b50610378610336366004612ae7565b600660209081526000928352604080842090915290825290208054600182015460028301546003909301546001600160a01b0390921692909160ff9091169084565b604080516001600160a01b03909516855260208501939093529015159183019190915260608201526080016102d0565b3480156103b457600080fd5b506102c66103c3366004612b5c565b6001600160a01b031660009081526002602052604090205490565b3480156103ea57600080fd5b506103fe6103f9366004612ae7565b610e34565b6040516102d0919081516001600160a01b03168152602080830151908201526040808301511515908201526060918201519181019190915260800190565b34801561044857600080fd5b506102f9610457366004612b30565b610eb1565b34801561046857600080fd5b506102c6610477366004612b17565b6000908152600560208190526040909120015490565b34801561049957600080fd5b506102c66104a8366004612b5c565b6001600160a01b031660009081526004602052604090205490565b3480156104cf57600080fd5b506104d8610ff6565b6040516102d09190612b80565b3480156104f157600080fd5b506104d8610500366004612b5c565b61104e565b34801561051157600080fd5b506102f96110ba565b34801561052657600080fd5b506102c6610535366004612b17565b6110cc565b34801561054657600080fd5b506102c660035481565b34801561055c57600080fd5b506102c661056b366004612b17565b6110ed565b34801561057c57600080fd5b506102f961058b366004612b17565b611140565b34801561059c57600080fd5b5060015460ff165b60405190151581526020016102d0565b3480156105c057600080fd5b506102c66105cf366004612b30565b61127e565b3480156105e057600080fd5b506102c66105ef366004612ae7565b600a60209081526000928352604080842090915290825290205481565b34801561061857600080fd5b506105a4610627366004612b17565b600090815260056020908152604080832060030154600890925290912054101590565b34801561065657600080fd5b5061066a610665366004612b17565b6112af565b6040516102d09190612bc4565b34801561068357600080fd5b506102c6610692366004612c1b565b61131a565b3480156106a357600080fd5b506102f9611650565b3480156106b857600080fd5b506003546102c6565b6102f9611662565b3480156106d557600080fd5b506102c66106e4366004612b5c565b60046020526000908152604090205481565b34801561070257600080fd5b506102c6610711366004612b17565b60009081526008602052604090205490565b34801561072f57600080fd5b506102f9611715565b34801561074457600080fd5b506102f9610753366004612cdf565b611725565b34801561076457600080fd5b5060015461010090046001600160a01b03165b6040516001600160a01b0390911681526020016102d0565b34801561079b57600080fd5b506102c66107aa366004612b17565b60086020526000908152604090205481565b3480156107c857600080fd5b506102c66107d7366004612ae7565b60009182526009602090815260408084206001600160a01b0393909316845291905290205490565b34801561080b57600080fd5b5061081f61081a366004612b17565b611920565b6040516102d09190612d51565b34801561083857600080fd5b506102f9610847366004612b17565b611a93565b34801561085857600080fd5b506105a4610867366004612ae7565b60009182526006602090815260408084206001600160a01b0393909316845291905290206002015460ff1690565b3480156108a157600080fd5b506107776108b0366004612cdf565b611be1565b6102f96108c3366004612b17565b611c19565b3480156108d457600080fd5b506108e86108e3366004612b17565b611d6f565b6040516102d099989796959493929190612de9565b34801561090957600080fd5b506102f9610918366004612e47565b611e4f565b34801561092957600080fd5b506102f9610938366004612b5c565b612005565b34801561094957600080fd5b506102f9610958366004612e47565b612040565b34801561096957600080fd5b506102f9610978366004612b17565b612240565b6102f961098b366004612b17565b612592565b34801561099c57600080fd5b506102c66109ab366004612b5c565b60026020526000908152604090205481565b6109c5612757565b60008181526005602052604090206006015460ff166109ff5760405162461bcd60e51b81526004016109f690612e7f565b60405180910390fd5b600081815260086020526040902054610a515760405162461bcd60e51b81526020600482015260146024820152734e6f20706f7420746f206469737472696275746560601b60448201526064016109f6565b600081815260076020908152604080832080548251818502810185019093528083529192909190830182828015610ab157602002820191906000526020600020905b81546001600160a01b03168152600190910190602001808311610a93575b505050505090506000805b8251811015610b3b57600660008581526020019081526020016000206000848381518110610aec57610aec612eac565b6020908102919091018101516001600160a01b031682528101919091526040016000206002015460ff1615610b295781610b2581612ec2565b9250505b80610b3381612ec2565b915050610abc565b5060008111610b805760405162461bcd60e51b81526020600482015260116024820152704e6f20616374697665206d656d6265727360781b60448201526064016109f6565b600083815260086020526040812054610b9a908390612edb565b90506000805b8451811015610c9557600660008781526020019081526020016000206000868381518110610bd057610bd0612eac565b6020908102919091018101516001600160a01b031682528101919091526040016000206002015460ff1615610c83576000858281518110610c1357610c13612eac565b60200260200101516001600160a01b03168460405160006040518083038185875af1925050503d8060008114610c65576040519150601f19603f3d011682016040523d82523d6000602084013e610c6a565b606091505b505090508015610c8157610c7e8484612abf565b92505b505b80610c8d81612ec2565b915050610ba0565b5060008581526008602052604081208054839290610cb4908490612efd565b909155505060008581526005602052604081206004018054839290610cda908490612efd565b909155505060405181815260009086907f4703acc4e202e6f27a30394474389b6d902320e07973f63d0cc63d90c49a34559060200160405180910390a35050505050565b610d26612757565b6001600160a01b038216600090815260026020526040902054811115610d5e5760405162461bcd60e51b81526004016109f690612f10565b60008111610d7e5760405162461bcd60e51b81526004016109f690612f47565b6001600160a01b03821660009081526002602052604081208054839290610da6908490612efd565b925050819055508060036000828254610dbf9190612abf565b90915550506001600160a01b0382166000908152600460205260408120805491610de883612ec2565b9190505550816001600160a01b03167f1c1a3b2d302c53208165e3a076749de733d6485dc8cfbcbe176ab201d34ffa8382604051610e2891815260200190565b60405180910390a25050565b6040805160808082018352600080835260208084018290528385018290526060938401829052868252600681528482206001600160a01b038781168452908252918590208551938401865280549092168352600182015490830152600281015460ff16151593820193909352600390920154908201525b92915050565b610eb9612757565b806003541015610f065760405162461bcd60e51b8152602060048201526018602482015277496e73756666696369656e7420706f742062616c616e636560401b60448201526064016109f6565b60008111610f265760405162461bcd60e51b81526004016109f690612f47565b8060036000828254610f389190612efd565b90915550506040516000906001600160a01b0384169083908381818185875af1925050503d8060008114610f88576040519150601f19603f3d011682016040523d82523d6000602084013e610f8d565b606091505b5050905080610fae5760405162461bcd60e51b81526004016109f690612f7e565b826001600160a01b03167ff5d8f9b1e7af440e1e7915f4693ccc004d1461a7dafd17ea7347d03decf298e183604051610fe991815260200190565b60405180910390a2505050565b6060600b80548060200260200160405190810160405280929190818152602001828054801561104457602002820191906000526020600020905b815481526020019060010190808311611030575b5050505050905090565b6001600160a01b0381166000908152600c60209081526040918290208054835181840281018401909452808452606093928301828280156110ae57602002820191906000526020600020905b81548152602001906001019080831161109a575b50505050509050919050565b6110c2612757565b6110ca61278a565b565b600b81815481106110dc57600080fd5b600091825260209091200154905081565b600081815260056020526040812060030154810361110d57506000919050565b600082815260056020908152604080832060030154600890925290912054611136906064612fa7565b610eab9190612edb565b6000818152600560205260409020600201546001600160a01b0316331480611189575060015461010090046001600160a01b03166001600160a01b0316336001600160a01b0316145b6111e15760405162461bcd60e51b8152602060048201526024808201527f4f6e6c792063726561746f72206f72206f776e65722063616e206465616374696044820152637661746560e01b60648201526084016109f6565b60008181526005602052604090206006015460ff1661123b5760405162461bcd60e51b815260206004820152601660248201527547726f757020616c726561647920696e61637469766560501b60448201526064016109f6565b600081815260056020526040808220600601805460ff191690555182917fab9f33094d433a8cfc4db09e35e270c77df158a3ae547cc7f0db3e595420667691a250565b600c602052816000526040600020818154811061129a57600080fd5b90600052602060002001600091509150505481565b6000818152600760209081526040918290208054835181840281018401909452808452606093928301828280156110ae57602002820191906000526020600020905b81546001600160a01b031681526001909101906020018083116112f15750505050509050919050565b60006113246127dc565b60008451116113755760405162461bcd60e51b815260206004820152601a60248201527f47726f7570206e616d652063616e6e6f7420626520656d70747900000000000060448201526064016109f6565b600083116113d15760405162461bcd60e51b8152602060048201526024808201527f54617267657420616d6f756e74206d75737420626520677265617465722074686044820152630616e20360e41b60648201526084016109f6565b600082116114215760405162461bcd60e51b815260206004820152601f60248201527f4475726174696f6e206d7573742062652067726561746572207468616e20300060448201526064016109f6565b6000338585424360405160200161143c959493929190612fbe565b60408051601f19818403018152918152815160209283012060008181526005909352912054909150156114a85760405162461bcd60e51b815260206004820152601460248201527347726f757020616c72656164792065786973747360601b60448201526064016109f6565b60006114b78462015180612fa7565b6114c19042612abf565b604080516101208101825284815260208082018a81523383850152606083018a905260006080840181905260a08401819052600160c085018190524260e0860152610100850187905288825260059093529390932082518155925193945090929082019061152f9082613093565b506040828101516002830180546001600160a01b0319166001600160a01b03909216919091179055606083015160038301556080830151600483015560a0830151600583015560c083015160068301805460ff191691151591909117905560e0830151600783015561010090920151600890910155600b805460018181019092557f0175b7a638427703f0dbe7bb9bbf987a2551717b34e79f33b5b1008d1fa01db901849055336000818152600c602090815293812080549384018155815292832090910184905561160391849190612800565b336001600160a01b0316827f4787ca9584ca07ede4ab972e047c0bea2ee7a8164da878b0d4b74656a17f8747888860405161163f929190613153565b60405180910390a350949350505050565b611658612757565b6110ca60006129c7565b61166a612a21565b6116726127dc565b600034116116925760405162461bcd60e51b81526004016109f690612f47565b33600090815260026020526040812080543492906116b1908490612abf565b90915550503360009081526004602052604081208054916116d183612ec2565b909155505060405134815233907f8ed8c6869618197b68315ade66e75ed3906c97b111fa3ab81e5760046825c7db9060200160405180910390a26110ca6001600055565b61171d612757565b6110ca612a4b565b61172d612a21565b6117356127dc565b60008281526005602052604090206006015460ff166117665760405162461bcd60e51b81526004016109f690612e7f565b600082815260066020908152604080832033845290915290206002015460ff166117c15760405162461bcd60e51b815260206004820152600c60248201526b2737ba10309036b2b6b132b960a11b60448201526064016109f6565b60008281526009602090815260408083203384529091529020548111156117fa5760405162461bcd60e51b81526004016109f690612f10565b6000811161181a5760405162461bcd60e51b81526004016109f690612f47565b600082815260096020908152604080832033845290915281208054839290611843908490612efd565b90915550506000828152600a60209081526040808320338452909152812080549161186d83612ec2565b9091555050604051600090339083908381818185875af1925050503d80600081146118b4576040519150601f19603f3d011682016040523d82523d6000602084013e6118b9565b606091505b50509050806118da5760405162461bcd60e51b81526004016109f690612f7e565b604051828152339084907f2e11346eb20314a219a7ffb07b726919753403c0ae1eb1d1ca0cb7a4594f909a9060200160405180910390a35061191c6001600055565b5050565b61197d604051806101200160405280600080191681526020016060815260200160006001600160a01b0316815260200160008152602001600081526020016000815260200160001515815260200160008152602001600081525090565b6005600083815260200190815260200160002060405180610120016040529081600082015481526020016001820180546119b69061300a565b80601f01602080910402602001604051908101604052809291908181526020018280546119e29061300a565b8015611a2f5780601f10611a0457610100808354040283529160200191611a2f565b820191906000526020600020905b815481529060010190602001808311611a1257829003601f168201915b505050918352505060028201546001600160a01b03166020820152600382015460408201526004820154606082015260058201546080820152600682015460ff16151560a0820152600782015460c082015260089091015460e09091015292915050565b611a9b612a21565b611aa36127dc565b33600090815260026020526040902054811115611ad25760405162461bcd60e51b81526004016109f690612f10565b60008111611af25760405162461bcd60e51b81526004016109f690612f47565b3360009081526002602052604081208054839290611b11908490612efd565b9091555050336000908152600460205260408120805491611b3183612ec2565b9091555050604051600090339083908381818185875af1925050503d8060008114611b78576040519150601f19603f3d011682016040523d82523d6000602084013e611b7d565b606091505b5050905080611b9e5760405162461bcd60e51b81526004016109f690612f7e565b60405182815233907f0d41118e36df44efb77a471fc49fb9c0be0406d802ef95520e9fbf606e65b4559060200160405180910390a250611bde6001600055565b50565b60076020528160005260406000208181548110611bfd57600080fd5b6000918252602090912001546001600160a01b03169150829050565b611c21612a21565b611c296127dc565b60008181526005602052604090206006015460ff16611c5a5760405162461bcd60e51b81526004016109f690612e7f565b600081815260066020908152604080832033845290915290206002015460ff16611cb55760405162461bcd60e51b815260206004820152600c60248201526b2737ba10309036b2b6b132b960a11b60448201526064016109f6565b60003411611cd55760405162461bcd60e51b81526004016109f690612f47565b600081815260096020908152604080832033845290915281208054349290611cfe908490612abf565b90915550506000818152600a602090815260408083203384529091528120805491611d2883612ec2565b9091555050604051348152339082907fef4a4c669f1b7da095eb094b4fd0a67c15b7ce23c95d567a0335335a1fc0a475906020015b60405180910390a3611bde6001600055565b60056020526000908152604090208054600182018054919291611d919061300a565b80601f0160208091040260200160405190810160405280929190818152602001828054611dbd9061300a565b8015611e0a5780601f10611ddf57610100808354040283529160200191611e0a565b820191906000526020600020905b815481529060010190602001808311611ded57829003601f168201915b50505060028401546003850154600486015460058701546006880154600789015460089099015497986001600160a01b03909516979396509194509260ff9091169189565b611e57612757565b60008381526005602052604090206006015460ff16611e885760405162461bcd60e51b81526004016109f690612e7f565b600083815260086020526040902054811115611ee15760405162461bcd60e51b8152602060048201526018602482015277496e73756666696369656e7420706f742062616c616e636560401b60448201526064016109f6565b60008111611f015760405162461bcd60e51b81526004016109f690612f47565b60008381526008602052604081208054839290611f1f908490612efd565b909155505060008381526005602052604081206004018054839290611f45908490612efd565b90915550506040516000906001600160a01b0384169083908381818185875af1925050503d8060008114611f95576040519150601f19603f3d011682016040523d82523d6000602084013e611f9a565b606091505b5050905080611fbb5760405162461bcd60e51b81526004016109f690612f7e565b826001600160a01b0316847f4703acc4e202e6f27a30394474389b6d902320e07973f63d0cc63d90c49a345584604051611ff791815260200190565b60405180910390a350505050565b61200d612757565b6001600160a01b03811661203757604051631e4fbdf760e01b8152600060048201526024016109f6565b611bde816129c7565b612048612757565b60008381526005602052604090206006015460ff166120795760405162461bcd60e51b81526004016109f690612e7f565b60008381526006602090815260408083206001600160a01b038616845290915290206002015460ff166120e25760405162461bcd60e51b81526020600482015260116024820152702ab9b2b9103737ba10309036b2b6b132b960791b60448201526064016109f6565b60008381526009602090815260408083206001600160a01b03861684529091529020548111156121245760405162461bcd60e51b81526004016109f690612f10565b600081116121445760405162461bcd60e51b81526004016109f690612f47565b60008381526009602090815260408083206001600160a01b038616845290915281208054839290612176908490612efd565b909155505060008381526008602052604081208054839290612199908490612abf565b9091555050600083815260056020526040812060040180548392906121bf908490612abf565b90915550506000838152600a602090815260408083206001600160a01b038616845290915281208054916121f283612ec2565b9190505550816001600160a01b0316837fa2987ed7431dc456f17ac51689134c7a135936e912383a34e1725fca1ad69b278360405161223391815260200190565b60405180910390a3505050565b612248612a21565b6122506127dc565b600081815260066020908152604080832033845290915290206002015460ff166122bc5760405162461bcd60e51b815260206004820152601860248201527f4e6f742061206d656d626572206f7220696e616374697665000000000000000060448201526064016109f6565b60008181526005602052604090206006015460ff166122ed5760405162461bcd60e51b81526004016109f690612e7f565b60008181526009602090815260408083203384529091529020548061234a5760405162461bcd60e51b81526020600482015260136024820152724e6f20626f6e6420746f20776974686472617760681b60448201526064016109f6565b600082815260066020908152604080832033808552908352818420600201805460ff1916905585845260098352818420908452825280832083905584835260059182905282200180549161239d83613175565b90915550506000828152600760205260408120905b81548110156124b857336001600160a01b03168282815481106123d7576123d7612eac565b6000918252602090912001546001600160a01b0316036124a6578154829061240190600190612efd565b8154811061241157612411612eac565b9060005260206000200160009054906101000a90046001600160a01b031682828154811061244157612441612eac565b9060005260206000200160006101000a8154816001600160a01b0302191690836001600160a01b031602179055508180548061247f5761247f61318c565b600082815260209020810160001990810180546001600160a01b03191690550190556124b8565b806124b081612ec2565b9150506123b2565b50604051600090339084908381818185875af1925050503d80600081146124fb576040519150601f19603f3d011682016040523d82523d6000602084013e612500565b606091505b50509050806125215760405162461bcd60e51b81526004016109f690612f7e565b604051339085907fbb7332ed2c9304ddee996cdb3fbef4348b3174f347b0c1fa5e53f96867e1321c90600090a3604051838152339085907f2e11346eb20314a219a7ffb07b726919753403c0ae1eb1d1ca0cb7a4594f909a9060200160405180910390a3505050611bde6001600055565b61259a612a21565b6125a26127dc565b60008181526005602052604090206006015460ff166125d35760405162461bcd60e51b81526004016109f690612e7f565b60008181526005602052604090206008015442106126275760405162461bcd60e51b815260206004820152601160248201527011dc9bdd5c081a185cc8195e1c1a5c9959607a1b60448201526064016109f6565b600034116126825760405162461bcd60e51b815260206004820152602260248201527f426f6e6420616d6f756e74206d7573742062652067726561746572207468616e604482015261020360f41b60648201526084016109f6565b60008181526006602090815260408083203384529091529020546001600160a01b0316156126e55760405162461bcd60e51b815260206004820152601060248201526f20b63932b0b23c90309036b2b6b132b960811b60448201526064016109f6565b6126f0813334612800565b6000818152600960209081526040808320338085529083528184203490819055858552600a84528285208286528452938290206001905590519283529183917fef4a4c669f1b7da095eb094b4fd0a67c15b7ce23c95d567a0335335a1fc0a4759101611d5d565b6001546001600160a01b036101009091041633146110ca5760405163118cdaa760e01b81523360048201526024016109f6565b612792612a86565b6001805460ff191690557f5db9ee0a495bf2e6ff9c91a7834c1ba4fdd244a5e8aa4e537bd38aeae4b073aa335b6040516001600160a01b03909116815260200160405180910390a1565b60015460ff16156110ca5760405163d93c066560e01b815260040160405180910390fd5b60008381526005602052604090206006015460ff166128315760405162461bcd60e51b81526004016109f690612e7f565b60008381526006602090815260408083206001600160a01b03868116855292529091205416156128a35760405162461bcd60e51b815260206004820152601760248201527f4d656d62657220616c726561647920696e2067726f757000000000000000000060448201526064016109f6565b604080516080810182526001600160a01b0380851680835260208084018681526001858701818152426060880190815260008c81526006865289812087825286528981209851895498166001600160a01b0319988916178955935188840155905160028801805491151560ff199092169190911790555160039096019590955588815260078252858120805495860181558152818120909401805490931690911790915585825260059081905291812090910180549161296283612ec2565b90915550506001600160a01b0382166000818152600c60209081526040808320805460018101825590845291909220018590555184907ffe67d7929803e0178099a6b007da53badecee981e8e170d98aeb8c07b64d9c2f906122339085815260200190565b600180546001600160a01b03838116610100818102610100600160a81b031985161790945560405193909204169182907f8be0079c531659141344cd1fd0a4f28419497f9722a3daafe3b4186f6b6457e090600090a35050565b600260005403612a4457604051633ee5aeb560e01b815260040160405180910390fd5b6002600055565b612a536127dc565b6001805460ff1916811790557f62e78cea01bee320cd4e420270b5ea74000d11b0c9f74754ebdbfc544b05a258336127bf565b60015460ff166110ca57604051638dfc202b60e01b815260040160405180910390fd5b634e487b7160e01b600052601160045260246000fd5b80820180821115610eab57610eab612aa9565b6001600160a01b0381168114611bde57600080fd5b60008060408385031215612afa57600080fd5b823591506020830135612b0c81612ad2565b809150509250929050565b600060208284031215612b2957600080fd5b5035919050565b60008060408385031215612b4357600080fd5b8235612b4e81612ad2565b946020939093013593505050565b600060208284031215612b6e57600080fd5b8135612b7981612ad2565b9392505050565b6020808252825182820181905260009190848201906040850190845b81811015612bb857835183529284019291840191600101612b9c565b50909695505050505050565b6020808252825182820181905260009190848201906040850190845b81811015612bb85783516001600160a01b031683529284019291840191600101612be0565b634e487b7160e01b600052604160045260246000fd5b600080600060608486031215612c3057600080fd5b833567ffffffffffffffff80821115612c4857600080fd5b818601915086601f830112612c5c57600080fd5b813581811115612c6e57612c6e612c05565b604051601f8201601f19908116603f01168101908382118183101715612c9657612c96612c05565b81604052828152896020848701011115612caf57600080fd5b82602086016020830137600060208483010152809750505050505060208401359150604084013590509250925092565b60008060408385031215612cf257600080fd5b50508035926020909101359150565b60005b83811015612d1c578181015183820152602001612d04565b50506000910152565b60008151808452612d3d816020860160208601612d01565b601f01601f19169290920160200192915050565b602081528151602082015260006020830151610120806040850152612d7a610140850183612d25565b91506040850151612d9660608601826001600160a01b03169052565b5060608501516080850152608085015160a085015260a085015160c085015260c0850151612dc860e086018215159052565b5060e085015161010085810191909152909401519390920192909252919050565b60006101208b8352806020840152612e038184018c612d25565b6001600160a01b039a909a16604084015250506060810196909652608086019490945260a0850192909252151560c084015260e08301526101009091015292915050565b600080600060608486031215612e5c57600080fd5b833592506020840135612e6e81612ad2565b929592945050506040919091013590565b60208082526013908201527247726f7570206973206e6f742061637469766560681b604082015260600190565b634e487b7160e01b600052603260045260246000fd5b600060018201612ed457612ed4612aa9565b5060010190565b600082612ef857634e487b7160e01b600052601260045260246000fd5b500490565b81810381811115610eab57610eab612aa9565b60208082526019908201527f496e73756666696369656e7420626f6e642062616c616e636500000000000000604082015260600190565b6020808252601d908201527f416d6f756e74206d7573742062652067726561746572207468616e2030000000604082015260600190565b6020808252600f908201526e151c985b9cd9995c8819985a5b1959608a1b604082015260600190565b8082028115828204841417610eab57610eab612aa9565b6bffffffffffffffffffffffff198660601b16815260008551612fe8816014850160208a01612d01565b6014920191820194909452603481019290925260548201526074019392505050565b600181811c9082168061301e57607f821691505b60208210810361303e57634e487b7160e01b600052602260045260246000fd5b50919050565b601f82111561308e57600081815260208120601f850160051c8101602086101561306b5750805b601f850160051c820191505b8181101561308a57828155600101613077565b5050505b505050565b815167ffffffffffffffff8111156130ad576130ad612c05565b6130c1816130bb845461300a565b84613044565b602080601f8311600181146130f657600084156130de5750858301515b600019600386901b1c1916600185901b17855561308a565b600085815260208120601f198616915b8281101561312557888601518255948401946001909101908401613106565b50858210156131435787850151600019600388901b60f8161c191681555b5050505050600190811b01905550565b6040815260006131666040830185612d25565b90508260208301529392505050565b60008161318457613184612aa9565b506000190190565b634e487b7160e01b600052603160045260246000fdfea26469706673582212204bb0380f7ec548677c4f3fe2b64e0d8c0e9203577f41f90dd88d84475fb7576d64736f6c63430008140033",
  "linkReferences": {},
  "deployedLinkReferences": {}
}